:1000000009C021C0C5C0D5C01EC01DC01CC01BC0BA
:100010001AC019C011241FBECFE9CDBF10E0A0E661
:10002000B0E0E8EDF1E002C005900D92AE36B10708
:10003000D9F720E0AEE6B0E001C01D92AF36B207BE
:10004000E1F762D0C7C0DCCFB99AC19A08956111B7
:1000500001C0C1988FEA94E00197F1F700C0000059
:10006000C19A0895EF92FF920F931F93CF93DF935E
:100070008C01E62E60E0EBDFC0E0D0E0F12C9701D0
:100080000C2E02C0359527950A94E2F720FF04C094
:1000900061E0C801DCDF03C060E0C801D8DF219661
:1000A000C830D10561F761E0C801D1DFDF91CF91A0
:1000B0001F910F91FF90EF900895FF920F931F9360
:1000C000CF93DF938C01EB016881662351F0F12C13
:1000D000F394C801C7DFFE01EF0DF11D60816111CE
:1000E000F7CFDF91CF911F910F91FF90089585B3C6
:1000F000886185BB8BB780628BBF089585E083BF25
:1001000089B7826089BF0895CF93DF931F92CDB7DF
:10011000DD272FEF8DEE92E0215080409040E1F7F7
:1001200000C00000B89AC098E9DFE1DFCE01019677
:100130008BDF85B7877E806185BF789480916E0064
:10014000853140F4B39916C0B4990BC013C0B49B69
:1001500014C01CC0B99AC19885B7806285BF8895C4
:10016000EDCF60E670E0CE010196A7DF10926E0041
:10017000C09AE4CFB399EBCF09C067E670E0CE0137
:1001800001969BDF10926E00C09AD8CFC098D6CF50
:100190001F920F920FB60F9211248F9385B78F7D08
:1001A00085BF10926E008F910F900FBE0F901F9021
:1001B00018951F920F920FB60F9211248F93809172
:1001C0006E008F5F80936E008F910F900FBE0F9027
:0801D0001F901895F894FFCF71
:0E01D8003C395941313E003C395942323E001B
:00000001FF
