S01A0000417474696E793233313352656365697665722E7372656393
S113000012C02AC029C028C027C026C06EC14AC158
S113001023C022C021C020C01FC01EC01DC01CC0E0
S11300201BC01AC019C011241FBECFEDCDBF10E0F4
S1130030A0E6B0E0E4E3F3E002C005900D92A4363C
S1130040B107D9F720E0A4E6B0E001C01D92A037C3
S1130050B207E1F7BCD06CC1D3CF87B3886187BB4B
S113006088B3877E88BBC09AB8980895B09B03C0B4
S1130070FC01108205C0B09903C021E0FC0120837B
S1130080FC01808108958CB18093680080916800A0
S11300908C33A1F41092690010926B0010926C00E2
S11300A010926D0010926E0010926F001092640016
S11300B010926500109266001092670080916900AA
S11300C0863070F4E0916900F0E080916800E659B0
S11300D0FF4F8083809169008F5F8093690008954A
S11300E010926A0010926B0010926C0010926D00D6
S11300F010926E0010926F00109269000895209182
S11301006A002C3311F520916F002E33F1F420C0D6
S113011030916C0020916100321325C020916D0054
S1130120213409F520916E002133E9F418C030918F
S11301306C0020916100321308C020916D002234BC
S113014021F420916E002233A9F0FC0180810895EE
S113015030916B0020916000321305C0D9CF21E0AB
S1130160FC012083F2CF30916B00209160003213A8
S1130170ECCFDDCF22E0FC012083E7CF10926A00B0
S113018010926B0010926C0010926D0010926E0031
S113019010926F00FC011082089585E083BF89B737
S11301A0826089BF08958091640090916500A09158
S11301B06600B09167000196A11DB11D8093640093
S11301C090936500A0936600B09367000895CF9361
S11301D0DF9300D0CDB7DD272FEF84E39CE02150DF
S11301E080409040E1F700C00000CE01029635DF68
S11301F012B889EF89B986E083B980E98AB9CE015A
S1130200029634DF90E0009721F0019739F403E07F
S113021006C0CE010196C1DF01E001C000E0789480
S113022010E0013019F0033059F1FBCFCE010196F3
S113023066DF181799F0CE01019661DF182F81301F
S113024041F018F0823041F009C088B3877E88BB42
S113025005C0C498C39A02C0C398C49A409164006C
S113026050916500609166007091670043315105BB
S1130270C0F288B3877E88BBCE0101967FDFD1CFE1
S1130280CE0101963CDF181761F2CE01019637DFEB
S1130290182F813019F0823019F0C3CFC39AC1CF1F
S11302A0C398BFCF1F920F920FB60F9211242F93B2
S11302B03F934F935F936F937F938F939F93AF93EA
S11302C0BF93EF93FF93DFDEFF91EF91BF91AF9167
S11302D09F918F917F916F915F914F913F912F915A
S11302E00F900FBE0F901F9018951F920F920FB68C
S11302F00F9211242F933F934F935F936F937F93A8
S11303008F939F93AF93BF93EF93FF934CDFFF9132
S1130310EF91BF91AF919F918F917F916F915F9179
S11303204F913F912F910F900FBE0F901F901895F2
S1070330F894FFCF6B
S1070334395900002F
S9030000FC
